:020000040800F2
:10000000E008002045010008AB280008052600088C
:10001000A9280008ED0F00088D2D00080000000041
:10002000000000000000000000000000AF280008F1
:100030003310000800000000AD280008B1280008B7
:100040005F0100085F0100085F0100085F01000810
:100050005F0100085F0100085F0100085F01000800
:100060005F0100085F0100085F0100085F010008F0
:100070005F0100085F010008F10F0008FD0F000894
:100080005F0100085F0100085F0100085F010008D0
:100090005F0100085F0100085F0100085F010008C0
:1000A0005F0100085F0100085F0100085F010008B0
:1000B0005F01000815290008212900085F010008D8
:1000C0005F0100085F0100085F0100085F01000890
:1000D0005F010008812D00085F0100085F01000832
:1000E0005F0100085F0100085F0100085F01000870
:1000F0005F0100085F0100085F0100085F01000860
:100100005F0100085F0100085F0100085F0100084F
:100110005F0100085F0100085F0100085F0100083F
:100120005F0100085F0100085F0100085F0100082F
:10013000DFF80CD000F098FD00480047DD3A0008D9
:10014000E00800200648804706480047FEE7FEE733
:10015000FEE7FEE7FEE7FEE7FEE7FEE7FEE7FEE777
:100160001329000831010008202A04DB203A21FA73
:1001700002F00021704721FA02F3D040C2F12002C0
:10018000914008431946704740EA01039B0703D09A
:1001900009E008C9121F08C0042AFAD203E011F8C6
:1001A000013B00F8013B521EF9D27047D2B201E088
:1001B00000F8012B491EFBD270470022F6E710B56C
:1001C00013460A4604461946FFF7F0FF204610BDC5
:1001D000421C10F8011B0029FBD1801A704703460E
:1001E00011F8012B00F8012B002AF9D118467047AD
:1001F0000FB400B58DB010A909900B9000914FF08D
:10020000FF300A9000200C900548069005480790A2
:100210006A4609A80F9900F0D1FB0DB05DF814FBF8
:10022000D9090008F70900082DE9FF4F087883B0C5
:100230009946FF2805D0491C2D2804D00024002011
:1002400008E000200BE00124F9E700EB800003EB5D
:100250004000491C0B78FF2BF7D104B1404200232A
:100260000293147819461D462D2C01D02B2C04D155
:10027000521C2D2C13D000240294AA461478FF2C73
:100280000FD00A25A3FB057801FB05814FF0000C78
:1002900003FB0C11521CE3194AEB0101EEE70124A8
:1002A000EAE7814453EA010002D019F5C87F06DA73
:1002B00003980021C0E9001107B0BDE8F08F0025C8
:1002C000AE4E2F46DFF8B882184600F0A8FCCDE904
:1002D0000001B9F1000002DAC9F1000400E00446AF
:1002E0000023A74A1AEB030B42EB045A12E0E00783
:1002F00007D02A4633463846414600F0ECF9074617
:1003000088462A4633461046194600F0E4F9054669
:100310000E466410002CEAD1DDE90001B9F1000FAE
:100320005A46534606DA00F00BFC3A46434600F0C4
:1003300007FC05E000F0CFF93A46434600F0CBF960
:10034000029A0AB181F00041039AC2E90001B3E7C1
:100350002DE9FF4F1F468DB0D7E901464FF0FF381A
:100360002E2045464FF000090B90B9696D1C0E9880
:100370008847396A824688470028F6D1BAF1FF3F9C
:100380000AD024F4D064002E11DDBAF12B0F08D06E
:10039000BAF12D0F0BD102E0404611B08DE744F4C5
:1003A0008064B9696D1C0E9888478246761E69463E
:1003B000600501D52D2000E02B208DF8000001F113
:1003C000010B0DF1200809E0B9696D1C0E988847F2
:1003D00082460F9844F40074761E0560002E02DDFC
:1003E000BAF1300FF0D00B998A453ED144F0800429
:1003F00006E00F99681CA9F1010944F40074086033
:10040000B9696D1C761E0E98884782463028F0D058
:100410002BE00B998A4505D1200603D444F08004D3
:10042000761E18E0504602F0FFFD08B30DF11301EF
:10043000761E44F400748B4508D2AAF130000BF804
:10044000010B200607D5A9F1010003E0200602D424
:1004500009F101008146A00502D50F99681C0860CA
:10046000B9696D1C0E9888478246002ED1DC53E096
:10047000002E51DDBAF1650F02D0BAF1450F4BD114
:10048000A00549D5B9696D1C24F44074761E0E98F8
:1004900088478246002E0CDD2B2804D0BAF12D0FA0
:1004A00007D144F48074B9696D1C0E988847824660
:1004B000761EE00501D52D2100E02B2108F8011B57
:1004C000CDF82C8021E00DF12901761E44F4007452
:1004D00088450CD2AAF1300010F0FF0088F8000027
:1004E00002D10B99884509D908F1010806E0E00519
:1004F00001D5244801E042F20F708146B9696D1CB4
:100500000E98884782460F980560002E04DD5046FD
:1005100002F08AFD0028D6D1F9690E988847FF209D
:100520008BF8000088F800000020069007904B46EA
:100530006A4608A906A8FFF777FEA00502D46FF067
:1005400001002AE714F0240F0AD0E00714D1DDE9F6
:1005500006123868031D3B600068C0E900120BE01A
:10056000DDE9060100F0A0F90146E00704D1386892
:10057000021D3A600068016028460EE70000144042
:100580000000F03FF1D8FFFF2DE9FE4F804681EAE1
:100590000300C00F0C46009021F0004123F00045FD
:1005A000B8EB0200A94105D24046214690461C46C0
:1005B0000B46024623F00040104347D0270DC7F3F7
:1005C0000A00C3F30A510290401A019040286BDAE6
:1005D000C3F3130040F4801B0098924620B100231F
:1005E000D2EB030A63EB0B0B01985946C0F14002B2
:1005F000504600F0BCF906460D4650465946019A51
:1006000000F0C4F910EB08006141002487EA1152A0
:1006100084EAE7731A4340D0009A62B3019A012A30
:100620004FEA075215DC001B61EB02014FF000425C
:1006300002EA0752CDE90042001C41F58011324622
:100640002B4600F02FFA03B0BDE8F08F404621465C
:10065000F9E7001B61EB0201001C41F58013001853
:100660005B412018A2F5001747EB030140EAD57063
:10067000B6196D4111E06D084FEA360645EAC075BE
:100680004FEA0752001B61EB0201001C41F580118B
:1006900049084FEA30000019514132462B4603B059
:1006A000BDE8F04F00F0EFB90098012240000023B0
:1006B000D0EB020263EBE073009821464FEAE0744E
:1006C000B8EB000061EB0401E9E783F000435BE76E
:1006D00081F0004158E72DE9FE4F81EA030404F060
:1006E000004421F0004100944FF0000B23F0004340
:1006F00050EA01045ED052EA03045BD0C3F30A540B
:10070000C1F30A552C44A4F2F3340194A0FB025423
:10071000C1F3130141F48011C3F3130343F48013B5
:1007200001FB024400FB034E840A970A44EA815409
:1007300047EA8357A4FB076802958D0A05FB0785E6
:100740004FEA932C04FB0C542705029D4FEA0658F0
:1007500047EA1637B5EB08056EEB070C870E920ECD
:1007600047EA811742EA8312A7FB0201B6EB0B01AD
:1007700064EB00042B0D43EA0C335E1844EB1C5071
:10078000DA465146E7FB0201C5F313044FEA0B3387
:1007900043EA14534FEA0432019C43EA0603A4F1EE
:1007A0000C040294009CCDE900B400F07BF903B086
:1007B000BDE8F08F00200146F9E770B521F0004355
:1007C00003430CD0C1F30A550024D5EB040564EBB8
:1007D0000403D617AD1AB34102DB0020014670BDF9
:1007E000201841EB025170BD0EB5C10F80EAE070D8
:1007F0000844CA07002140F233438DE80E000A4640
:100800000B4600F04FF903B000BD70B5C1F30A52BA
:1008100001F000450024C1F3130140F2FF3341F41D
:1008200080119A4201DA002070BD40F233439A42AF
:10083000A2F2334203DC5242FFF796FC00E0904004
:100840002C43F1D0404270BD30B5041E71F100045C
:1008500004DB4FF00044404264EB0101141E73F1CD
:10086000000405DB1C464FF00043524263EB0403D7
:100870008B4208BF824230BD30B5041E71F10004C6
:1008800004DB4FF00044404264EB0101141E73F19D
:10089000000405DB1C464FF00043524263EB0403A7
:1008A000994208BF904230BD01F0004330B421F0BE
:1008B000004150EA010206D00A0DA2F56072C1F3B0
:1008C0001301002A02DC30BC00207047440F44EAC8
:1008D000C104C100E01830BC00EBC25000F09CB86D
:1008E00030B50B46014600202022012409E021FA00
:1008F00002F59D4205D303FA02F5491B04FA02F5FD
:100900002844151EA2F10102F1DC30BD2DE9F05F93
:100910000546002092469B4688460646814640246E
:100920001BE02846414647462246FFF71DFC53463A
:100930005A46C01A914110D311461846224600F07B
:1009400016F82D1A67EB01084F46224601200021B8
:1009500000F00DF817EB00094E41201EA4F1010430
:10096000DFDC484631462A464346BDE8F09F202A50
:1009700004DB203A00FA02F1002070479140C2F1F6
:10098000200320FA03F3194390407047202A06DB26
:10099000CB17203A41FA02F043EAE07306E041FA4D
:1009A00002F3D040C2F1200291400843194670473B
:1009B000026811441378016018467047D1600449F9
:1009C00051610449116200211161114600F064B9BE
:1009D000B10900088D0C0008426842B1016811F8A5
:1009E000013B23B1521EC0E9001218467047012195
:1009F000C160881E704742685AB1C368016843B934
:100A000083688B4205D0491E521CC0E900120020A9
:100A100070474FF0FF3070470029A8BF7047401C57
:100A2000490008BF20F00100704710B4B0FA80FC04
:100A300000FA0CF050EA010404BF10BC704749B141
:100A4000CCF1200421FA04F411FA0CF118BF0121B1
:100A500021430843A3EB0C01CB1D4FEA00614FEA91
:100A6000102042BF002010BC704700EBC350104460
:100A70000029A4BF10BC7047401C490008BF20F0EB
:100A8000010010BC704710B5141E73F1000408DAA1
:100A9000401C41F1000192185B411A4301D120F042
:100AA000010010BD2DE9F04D92469B4611B1B1FAFF
:100AB00081F202E0B0FA80F220329046FFF757FF51
:100AC00004460F4640EA0A0041EA0B0153465A46E3
:100AD000084313D0114653EA010019D0C8F140026F
:100AE0005046FFF741FB05460E46504659464246E2
:100AF000FFF73DFF084305D0012004E020463946BA
:100B0000BDE8F08D0020054346EAE0762C433743EC
:100B10000A986305E40AA0EB08000022FD0A44EAF3
:100B200047540A3002D500200146E9E701051019B3
:100B30006941DDE9084500196941BDE8F04DA2E7CA
:100B40002DE9F04D81EA030404F0004B21F000454B
:100B500014464FF0000A23F0004150EA050220D06D
:100B600054EA01021DD0C5F30A570246C5F3130328
:100B7000C1F31300C1F30A5640F4801543F4801307
:100B8000A7EB0608101BD64608F2FD3873EB0500EC
:100B900002D308F1010801E092185B41B8F1000F9F
:100BA00003DA00200146BDE8F08D00204FF48011EB
:100BB000064684460EE0171B73EB050705D3121B90
:100BC00063EB050306434CEA010C49084FEA300089
:100BD00092185B4150EA0107EDD152EA030012D0AE
:100BE00082EA040083EA0501084305D0101BAB41EB
:100BF00006D20122002306E000224FF0004302E06B
:100C00006FF0010253101AEB06004CEB085110EB89
:100C10000A0041EB0B01BDE8F04DFFF734BF0EB504
:100C200040F2334202920022CDE900221346FFF740
:100C300039FF03B000BDC1F30A52C1F3130140F202
:100C4000FF3341F480119A4202DA002001467047D6
:100C500040F233439A42A2F2334202DC5242FFF79F
:100C600083BAFFF784BE0000064C074D06E0E0683B
:100C700040F0010394E8070098471034AC42F6D3E3
:100C8000FFF75AFA2842000848420008C0B24FF461
:100C9000F05100F097B900002DE9F34F8BB04FF001
:100CA000000801F10C000C464FF0010B46460DF117
:100CB000080A01906269012101989047051E2DD014
:100CC000252D2CD0216A8847C0B162690121019885
:100CD0009047216A88470028F7D1411E6269019830
:100CE000904700E0761CA1690B988847216A8847E5
:100CF0000028F7D1E1690B988847DBE7A1690B98D9
:100D000088470746A84201D1761CD3E7E1690B98D2
:100D100088477F1C02D1B8F1000F6FD046E1002751
:100D200062693D463946019890472A2804D1626994
:100D30000121019890470125DFF884926269012121
:100D400001989047A0F130010A290AD24F45E5DC0D
:100D500007EB870100EB4107303FDFD445F010057A
:100D6000ECE7E90601D46FF000476C280AD04C2864
:100D700014D0682815D06A280DD074281CD07A2881
:100D80001AD01DE062690121019890476C2802D0B9
:100D900045F0040514E045F002050DE045F020059E
:100DA0000AE06269012101989047682802D045F065
:100DB000080505E045F40065626901210198904746
:100DC000C4E9015765283DD019DC58287AD00CDCDD
:100DD000452837D004DC252826D0412831D131E000
:100DE00046282FD047282CD12CE05B2877D06128CB
:100DF00028D063287CD0642823D15AE0D0E06F2823
:100E000048D008DC66281DD067281BD0692821D06F
:100E10006E2816D127E0702845D0732868D0752831
:100E200047D078280DD14DE0A1690B988847054639
:100E300025283FF469AFE1690B9888476D1C3FF4A2
:100E40006AAFB3E023466A466FF001000B99FFF7E3
:100E50007FFA9EE045F040006060A80723464FF00F
:100E6000000236D43EE0E8077FF447AF2068011D5A
:100E700021600068290501D506701BE7290701D507
:100E8000068017E7A90703D5F117C0E9006111E74C
:100E900006600FE745F040006060A80723464FF06A
:100EA000080216D41EE040F60E0125EA010060603B
:100EB00016E045F040006060A80723464FF00A02A4
:100EC00007D40FE045F040006060A80708D523462E
:100ED00010226FF001000B99AFF3008059E007E09A
:100EE000234610226FF001000B99AFF3008050E011
:100EF0004FF000094F464B46632802D05B2806D0CE
:100F000040E0E80601D40120A06001273AE06269D0
:100F10000121019890475E2805D14FF001096269CF
:100F2000494601989047216939B900210A4653463C
:100F300043F82120491C0829FADBB0B3216969B9BB
:100F4000C11700EBD16253110AEB830122F01F029B
:100F5000821A01200B68904003430B6062690121F3
:100F6000019890475D28E8D1B9F1000F09D0002021
:100F7000514651F82020D24341F82020401C082837
:100F8000F7DB02AB224600976FF001000B99AFF33D
:100F9000008000280CDA401C08D1BBF1000F05D0FE
:100FA0004FF0FF300DB0BDE8F08FFFE74046F9E7A6
:100FB000E90701D108F1010806444FF0000B79E67A
:100FC000CCCCCC0C7F2801D9002208E0064A02EBE9
:100FD0005002C007127800D1120902F00F0201205E
:100FE0009040084070470000E8410008FEE700001C
:100FF000014800F0E1B8000054020020014800F070
:10100000DBB800009802002030B590F84050012471
:10101000AC40C56B6C60046863604368102B036868
:1010200003D099600068C26030BD9A600068C160FA
:1010300030BD704772B6FEE710B590F8211000225F
:10104000022905D00421816380F82020012010BDF1
:1010500001680B6823F00E030B6001680B6823F036
:1010600001030B6090F84030C46B012101FA03F3D7
:10107000636080F8211080F82020104610BD000029
:101080002DE9F05F90F821100024022903D00421FB
:101090008163012485E001680A6822F00E020A607B
:1010A00001680A6822F001020A603F4E3E4FB21505
:1010B000DFF8F4C0DFF8F090DFF8ECA0DFF8E8B07C
:1010C000DFF8E4E00168783F13011502ACF1640C2D
:1010D000A9F15009AAF13C0AABF1280BAEF1140EAC
:1010E0004FF48018B14227D9B9420ED0614512D0D1
:1010F00049451DD0514518D0594518D0714501D1E9
:10110000424615E0294EB14201D1012210E0274E9E
:101110001436B14201D110220AE0244E2836B142E1
:1011200006D0224A3C32914201D11A4600E02A46BA
:101130001E49091F0A602BE0B94213D0614517D040
:10114000494522D051451DD059451DD0714501D189
:1011500042461AE0B14202D14FF0807215E0134EC0
:10116000B14201D1012210E0104E1436B14201D13A
:1011700010220AE00D4E2836B14206D00B4A3C320E
:10118000914201D11A4600E02A46074980394A6057
:10119000012180F82110002180F82010416B01B15D
:1011A00088472046BDE8F09F8000024008040240C6
:1011B00090F82100704700002DE9F05FC16B0A68CC
:1011C00001680B68046C4FF0040808FA04F8844DB9
:1011D000844E854FDFF814C2DFF81492DFF814A2B2
:1011E000DFF814B2DFF814E218EA020F65D05FEA04
:1011F000437862D50A68920603D40A6822F0040292
:101200000A60DFF8F0814FF48062016808F1140889
:1012100013011402414524D9A9420DD0B1420FD087
:10122000B9421AD0614515D0494515D0514501D173
:10123000120312E0594501D104220EE0714501D19B
:1012400040220AE06D4D1435A94206D06B4A28327F
:10125000914201D11A4600E022466749091F0A60FF
:1012600029E0A94213D0B14215D0B94220D061453E
:101270001BD049451BD0514502D14FF4800217E0E5
:10128000414502D14FF0806212E0594501D104225C
:101290000EE0714501D140220AE0584D1435A942B3
:1012A00006D0564A2832914201D11A4600E0224621
:1012B0004B4908394A60C16A71E04FF0020808FAE8
:1012C00004F818EA020F70D05FEA83786DD50A68D7
:1012D000920606D40A6822F00A020A60012180F808
:1012E0002110DFF810814FF40072016808F1140832
:1012F00013011402414524D9A9420DD0B1420FD0A7
:10130000B9421AD0614515D0494515D0514501D192
:10131000120312E0594501D102220EE0714501D1BC
:1013200020220AE0354D1435A94206D0334A28322E
:10133000914201D11A4600E022462F49091F0A6056
:1013400029E0A94213D0B14215D0B94220D061455D
:101350001BD049451BD0514502D14FF4001217E074
:10136000414502D14FF0007212E0594501D10222ED
:101370000EE0714501D120220AE0204D1435A9422A
:1013800006D01E4A2832914201D11A4600E0224678
:10139000134908394A60002180F82010816A002929
:1013A0001CD0BDE8F05F0847FFE70825A5401542BF
:1013B00014D01A0712D50A6822F00E020A6090F8BB
:1013C0004020C36B012101FA02F25A60816380F868
:1013D0002110002180F82010016BE0E7BDE8F09FAC
:1013E000080002401C00024030000240440002405D
:1013F000580002406C000240080402401C040240F5
:1014000030B560B11A4B026814219A4209D2194BC7
:101410001344B3FBF1F18900016417490AE001208C
:1014200030BD134B5B421344B3FBF1F189000164FF
:101430000F490839C163022180F82110136843F66F
:10144000F0718B43F0E901142143D0E902452C43AC
:101450002143046921434469214384692143194399
:10146000116000214163012242770177084630BDB7
:1014700008040240F8FFFDBF0000024070B50446BA
:1014800090F82000002501280CD0012084F82000CD
:1014900094F821600020012E06D084F82000022557
:1014A000284670BD022070BD022684F82160A0632A
:1014B0002068066826F0010606602046FFF7A4FDB6
:1014C000E06A00282068016802D041F00E0106E0C1
:1014D00021F0040101602068016841F00A01016007
:1014E0002068016841F001010160D9E770B5044648
:1014F00000F010F90546601C02D00448007804444E
:1015000000F008F9401BA042FAD370BD180000207B
:101510002DE9F84FDFF8C891002409F1040A0AF117
:10152000040B23460F270BF1040ED1E00125A54043
:1015300006EA0502AA4276D1DFF8A8C14E68A6EBFA
:101540000C0866452BD00DDC032E34D005DC36B3F9
:10155000012E19D0022E2FD11BE0112E16D0122EE3
:101560002AD119E0B8F5881F19D006DCB8F5803FFC
:1015700015D0B8F5801F1FD111E0B8F5001F0ED0AF
:10158000B8F5041F18D10AE0CB6815E0CB681B1D25
:1015900012E0CB6808330FE0CB680C330CE08B68AB
:1015A0002BB1012B4FF0080303D0456104E0042365
:1015B00002E0056100E00023FF2A01D8064601E0B1
:1015C00000F104064FEA840501D9A5F12005D6F8FB
:1015D000008007FA05FC28EA0C0803FA05F548EA3A
:1015E0000508C6F800804D68ED0070D53E4DAE6927
:1015F00046F00106AE61AD6924F0030605F0010571
:1016000000953A4D06EB050CDCF80850A607360F9E
:1016100007FA06F825EA0805DFF8D480404503D12B
:101620004FF0000825E052E0DFF8C880404502D1C5
:101630004FF001081DE0DFF8C080404502D14FF0B7
:10164000020816E0DFF8B480404502D14FF00308ED
:101650000FE0DFF8AC80404502D14FF0040808E00D
:10166000DFF8A080404502D14FF0050801E04FF0BF
:10167000060808FA06F848EA0508CCF808804D681C
:10168000D9F80060ED034D4601D5164300E09643BE
:101690002E604D68DAF80060AD03554601D516435B
:1016A00000E096432E604D68DBF80060ED025D4679
:1016B00001D5164300E096432E604D68DEF80060C9
:1016C000AD02754601D5164300E096432E60641CBA
:1016D0000A681646E2407FF429AFBDE8F88F0000A3
:1016E0000004014000001110001002400000014001
:1016F00000080140000C01400010014000140140AE
:1017000000180140001C01400AB101617047090442
:10171000FBE70000014880687047000018000020C7
:1017200002488168027811448160704718000020E7
:10173000074810B5016841F010010160032000F076
:1017400075F80F2000F006F800F024F8002010BD16
:101750000020024070B50D4D04464FF47A71287890
:10176000B1FBF0F00A490968B1FBF0F000F0ECFAC7
:1017700048B9102C07D200222146501E00F036F83E
:1017800000206C6070BD012070BD000018000020BA
:10179000240000200C4808B5816941F001018161F5
:1017A000816901F001010091C16941F08051C1617D
:1017B000C06900F0805000900448416821F0E06169
:1017C00041F00071416008BD00100240000001407E
:1017D000002809DB00F01F02012191404009800030
:1017E00000F1E020C0F8001170470000F0B40E4B8B
:1017F0001B680C46C3F30223C3F10705042D00D96F
:101800000425191D072901D2002300E0DB1E012653
:1018100006FA05F1491E214099409E40761E164069
:101820003143F0BC01F0C8BA0CED00E0064900F00D
:10183000070208684FF6FF03184040EA0220034AF7
:1018400010430860704700000CED00E00000FA054E
:101850002DE9F0470F46050061D0434E306800F097
:101860000700B84209D2306820F0070038433060E2
:10187000306800F00700B84251D128683B4C81071E
:1018800012D5400703D5606840F4E06060602878B6
:10189000000703D5606840F4605060606068A96824
:1018A00020F0F000084360602878C00728D06868FE
:1018B000012810D02168022810D0890700292EDACB
:1018C000616821F0030101436160FFF723FF804657
:1018D00041F288390DE021688903EFE78901EDE7DE
:1018E000FFF718FFA0EB0801494502D90320BDE826
:1018F000F0876068696800F00C00B0EB810FEFD1F1
:10190000306800F00700B8420BD9306820F00700BB
:1019100038433060306800F00700B84201D0012041
:10192000E5E72878400705D56068E96820F4E060BD
:10193000084360602878000706D56068296920F4AC
:10194000605040EAC100606000F038F86168084A01
:10195000C1F30311515CC84006490860064800689D
:10196000FFF7F8FE0020C2E700200240001002400E
:10197000D0410008240000201C0000200448054934
:1019800000684968044AC1F30221515CC8407047AD
:101990002400002000100240E041000804480549EE
:1019A00000684968044AC1F3C221515CC8407047CD
:1019B0002400002000100240E041000812A185B080
:1019C0000FC98DE80F0014A0144A006804905168F4
:1019D000134801F00C03042B10D0082B0ED1C1F3D7
:1019E0008343C9031DF803000AD5516804AAC1F353
:1019F0004041515C0A4A5043B0FBF1F005B07047DA
:101A000008494843FAE700000203040506070809ED
:101A10000A0B0C0D0E0F1010010200000010024006
:101A200000127A0000093D002DE9F84F040070D043
:101A30002078C04DC00749D06868C0F381000128F4
:101A400007D06868C0F38100022809D16868C00324
:101A500006D52868800339D560680028E7D035E0CE
:101A60006068B0F5803F0BD010B1B0F5A02F11D059
:101A7000286820F480302860286820F4802002E064
:101A8000286840F480302860606890B1FFF742FE1B
:101A900006460AE0286840F480202860F0E700BF8E
:101AA000FFF738FE801B642873D828688003F7D5B9
:101AB0000CE0FFF72FFE064605E000BFFFF72AFE09
:101AC000801B6428F0D828688003F7D420789A4EC9
:101AD00080074FF001094FF0000839D5686810F011
:101AE0000C0F07D06868C0F38100022809D168682C
:101AF000C00306D42868800714D52069012808D1BE
:101B000010E02069B0B1C6F80090FFF703FE074669
:101B100005E00AE1FFF7FEFDC01B0228C4D82868D3
:101B20008007F7D52868616920F0F80040EAC10015
:101B300028600DE0C6F80080FFF7ECFD074604E0E2
:101B4000FFF7E8FDC01B022823D828688007F7D4D8
:101B5000207800072CD57948A169D9B1C0F8009048
:101B6000FFF7D8FD074604E0FFF7D4FDC01B0228AD
:101B70000FD8686A8007F7D571484FF4FA510068AA
:101B8000B0FBF1F0009000BF0098411E0091FAD226
:101B90000EE080E0C0F80080FFF7BCFD074604E0DF
:101BA000FFF7B8FDC01B022875D8686A8007F7D414
:101BB0002078400760D5E8690027C00008D4E869AC
:101BC00040F08050E861E869012700F08050009003
:101BD0005C480168C90513D40168834641F48071EB
:101BE0000160FFF797FD824606E000BFFFF792FD18
:101BF000A0EB0A0064284ED8DBF80000C005F5D53C
:101C0000E06801280AD008B1052813D0286A20F01E
:101C100001002862286A20F0040002E0286A40F0EF
:101C200001002862E06841F2883B98B1FFF772FD3D
:101C300082460BE0286A40F004002862EEE700BF0D
:101C4000FFF768FDA0EB0A0159455AD8286A8007BA
:101C5000F6D50CE0FFF75EFD824605E0FFF75AFD82
:101C6000A0EB0A0159454CD8286A8007F6D41FB169
:101C7000E86920F08050E861E06988B36968C1F3E1
:101C80008101022944D00228C6F8608004D0FFF701
:101C900041FD044638E034E0FFF73CFD074604E030
:101CA000FFF738FDC01B02282BD828688001F7D425
:101CB000206AB0F5803F05D16868A16820F4003043
:101CC00008436860D4E908010843696821F4741185
:101CD00008436860C6F86090FFF71CFD044606E004
:101CE00025E000BFFFF716FD001B022809D8286871
:101CF0008001F7D51BE000BFFFF70CFD001B022899
:101D000002D90320BDE8F88F28688001F4D40EE0E2
:101D10000128F7D06868226A00F48031914204D12A
:101D2000616A00F47010884201D00120EAE70020C7
:101D3000E8E70000001002400000424280044242F6
:101D4000240000200070004010B5401EB0F1807FDC
:101D500001D3012010BD4FF0E02460610F21601716
:101D600001F02AF80020A06107202061002010BDAA
:101D70007047704770B590F83C20012A2CD00124A0
:101D800080F83C40022280F83D2003685A689D6834
:101D900022F070060A6832435A60104B02689A4279
:101DA0000ED00F4B9A420BD0B2F1804F08D00D4BA2
:101DB0009A4205D00C4B9A4202D00C4B9A4204D165
:101DC000496825F080031943916080F83D40002167
:101DD00080F83C10084670BD022070BD002C014008
:101DE000003401400004004000080040000C0040A6
:101DF00010B5040003D094F83D0010B107E00120B5
:101E000010BD002084F83C00204600F01FF802209E
:101E100084F83D00211D206800F088FD012084F831
:101E2000460084F83E0084F83F0084F8400084F8BF
:101E3000410084F8420084F8430084F8440084F8A8
:101E4000450084F83D00002010BD000008B5154A8B
:101E50000168154891420ED1C16941F00201C1618A
:101E6000C069002200F00200009011461D20FFF71B
:101E7000BDFC1D2010E00D4A914211D1C16941F015
:101E80000401C161C069002200F004000090114605
:101E90001E20FFF7ABFC1E20BDE80840FFF798BCF2
:101EA00008BD00000004004000100240000800408F
:101EB00070B5044690F83C00012817D0012584F83D
:101EC0003C50022084F83D002068826822F07702AE
:101ED00022F47F4282600868502830D00DDC202830
:101EE0004DD005DC98B310283BD148E0022070BDEE
:101EF000302844D0402834D139E0602828D07028D8
:101F000006D0B0F5805F2CD0B0F5005F29D10AE093
:101F1000CB68D1E90121206800F04EFD206881687E
:101F200041F0770109E0CB68D1E90121206800F098
:101F300043FD2068816841F48041816011E0CA68F6
:101F40004968206800F04AFD5021206807E016E04B
:101F5000CA684968206800F052FD6021206800F0DE
:101F600035FD84F83D50002084F83C0070BDCA68FF
:101F70004968206800F032FD40212068EFE72268C0
:101F800001461046EBE7704770B5044600680169EA
:101F90004FF00005C943890715D4C168C9438907B3
:101FA00011D4E91E01610120207720688069800733
:101FB000204602D0FFF7E7FF04E000F098F8204643
:101FC00000F096F8257720680169C943490717D4BE
:101FD000C168C943490713D46FF0040101610220AD
:101FE00020772068806910F4407F204602D0FFF7F8
:101FF000CAFF04E000F07BF8204600F079F825776E
:1020000020680169C943090716D4C168C943090793
:1020100012D46FF008010161042020772068C069A4
:102020008007204602D0FFF7AEFF04E000F05FF823
:10203000204600F05DF8257720680169C943C9068C
:1020400017D4C168C943C90613D46FF010010161E8
:10205000082020772068C06910F4407F204602D015
:10206000FFF791FF04E000F042F8204600F040F84E
:10207000257720680169C943C90708D1C168C943E8
:10208000C90704D1891E0161204600F032F820689A
:102090000169C943090609D4C168C943090605D4C1
:1020A0006FF0800101612046FFF762FE2068016940
:1020B000C943490609D4C168C943490605D46FF02C
:1020C00040010161204600F015F820680169C9430C
:1020D00089060BD4C168C943890607D46FF0200173
:1020E00001612046BDE87040FFF743BE70BD7047F8
:1020F000704770477047704770470000F8B5026836
:1021000004461068D168536910F00F0F4FF00005B6
:1021100053D003F0010601F4907737435FD0C20734
:1021200005D0CA0503D5226C42F0010222644207A1
:1021300005D5DA0703D0226C42F00202226482073E
:1021400005D5DA0703D0226C42F0040222640207AC
:1021500007D501F02002324303D0226C42F008027E
:102160002264226C002A34D0800604D5880602D569
:10217000204600F0FAFC20684069216CC0F3801012
:10218000090700D430B3204600F0CEFC2068416936
:1021900049061BD5416921F040014161A06BA8B1FE
:1021A00058494163A06BFEF76BFF002811D0A06B6C
:1021B000416B01B0BDE8F040084783060FD58B06A0
:1021C0000DD52046BDE8F84000F0CFBC2046FFF713
:1021D00093FFF8BD2046FFF78FFF2564F8BD266BFF
:1021E0002023012E52D1C60650D5CE064ED51068FA
:1021F00050680090506940062AD5A16B0868406875
:102200000004000CEAD0A68D8642E7D9E0858869F3
:10221000202818D0D06820F48070D06020684169F0
:1022200021F0010141612068416921F040014161D3
:1022300084F83E3025632068C16821F01001C16038
:10224000A06BFEF7F9FEA08DE18D401A81B219E076
:10225000A08DE18D401A81B2E08D0028BED000290A
:10226000BCD0D06820F49070D0602068426922F021
:102270000102426184F83E3025632068C26822F082
:102280001002C2602046FFF736FFF8BD05062BD5C9
:102290000D0629D594F83D002128F6D1A068B0F5A7
:1022A000805F01D12069B0B1206A411C21622168A0
:1022B00000784860E08C401E0004000CE084E4D10B
:1022C0002068C16821F08001C1602068C16841F0C8
:1022D0004001C160F8BD206A0088C0F3080050606A
:1022E000206A801C2062E5E74006F3D54806F1D558
:1022F000D168204621F04001D16084F83D3000F0E3
:102300007FF9F8BD232A000870B5040004D094F8C2
:102310003D00002510B106E0012070BD84F83C505E
:10232000204600F023F8242084F83D002068C1688E
:1023300021F40051C160204600F072FC2068016960
:1023400021F4904101612068416921F02A01416135
:102350002068C16841F40051C1602564202084F8E0
:102360003D0084F83E00002070BD0000F0B585B04F
:1023700000240094019402940394064603684F4895
:10238000DFF834C1022103224D4D0715634551D1B9
:10239000836943F480438361836903F48043049336
:1023A000836943F0040383618069039200F00400B1
:1023B00004900802CDE9000169462846FFF7A8F815
:1023C000CDE90074694628460294FFF7A1F83E4D16
:1023D0003C48802701C5102091C5400245F81049AE
:1023E0006C61C5E906403848FFF70AF808B1FEF706
:1023F00021FE75636E62344D324844351430C5E9B0
:102400000004C5E9024720202C61C5E905402846A3
:10241000EC61FEF7F5FF08B1FEF70CFEB563002294
:10242000114625206E62FFF7E1F92520FFF7D0F96C
:1024300005B0F0BD254EB34219D1C36943F4003352
:10244000C361C36903F400330493836943F0040355
:1024500083618069039200F0040004900420CDE9B8
:10246000000169462846FFF753F808201BE0184D85
:10247000AB42DDD1C36943F48023C361C36903F474
:1024800080230493836943F0080383618069CDE965
:10249000007100F00800CDE903200E4D6946284682
:1024A000FFF736F8E814CDE900046946284602949F
:1024B000FFF72EF8BCE70000003801400010024092
:1024C0000008014044000240540200200044004043
:1024D00000480040000C014090F83E30202B0ED107
:1024E00059B152B190F83C30012B08D0012380F84B
:1024F0003C300023036300F0EFBB01207047022053
:10250000704790F83E30202B0ED159B152B190F85F
:102510003C30012B08D0012380F83C3000230363BA
:1025200000F012BC012070470220704710B500680F
:102530000E49884219D10E4C2178C7290FD8601C4A
:10254000007824280BD00B4A5054491C21700849AC
:102550000122BDE81040491C0748FFF7D2BF0548DB
:1025600001F02AFB00202070F1E710BD0038014087
:10257000000000203000002088010020704700008B
:1025800070B5044690F83D00202830D169B362B39D
:1025900094F83C0001282AD0012084F83C002162F4
:1025A000A284E28400252564212084F83D00636B29
:1025B00010489862636B1048D862636B0F481863C9
:1025C000606B134645632668606B321DFEF756FF4D
:1025D00021686FF04000086084F83C502068416931
:1025E00041F080014161002070BD012070BD0220DA
:1025F00070BD0000F12A00081F2B0008332A0008D4
:1026000070477047FEE700000D4808B5416941F08A
:10261000010141614069002200F001000090114673
:102620000E20FFF7E3F80E20FFF7D2F80022114644
:102630000F20FFF7DBF8BDE808400F20FFF7C8B810
:10264000001002402DE9F04786B000243448009481
:10265000019402940394816941F0200181618169B0
:1026600001F020010491816941F0100181618169CB
:1026700001F010010491816941F0040181618169D7
:1026800001F004010491816941F0080181618069D0
:10269000DFF8908000F008000490002201214046FD
:1026A000FFF732F8DFF880904FF491770022394637
:1026B0004846FFF729F8DFF874A000221F21504692
:1026C000FFF722F80125022603960095CDE9015473
:1026D00069464046FEF71CFFCDE900646946404666
:1026E0000294FEF715FF00970396CDE90154694661
:1026F0004846FEF70DFF5020CDE9000469464846E4
:102700000294FEF705FF1F20CDE90005CDE9024642
:1027100069465046FEF7FCFE06B0BDE8F0870000B3
:10272000001002400010014000080140000C014070
:1027300010B586B0002417480094019402940394C5
:1027400004941349059401604721C0E901144FF630
:10275000FF71C0E9031480218161FFF749FB08B1D3
:10276000FEF768FC4FF48050009069460948FFF777
:102770009FFB08B1FEF75EFC049404A9054805948C
:10278000FFF7F8FA002801D0FEF754FC06B010BDA0
:1027900000040040F800002010B586B0002417485F
:1027A00000940194029403940494134905940160E5
:1027B0004721C0E9011440F2E731C0E90314802148
:1027C0008161FFF715FB08B1FEF734FC4FF4805030
:1027D000009069460948FFF76BFB08B1FEF72AFC39
:1027E000049404A905480594FFF7C4FA002801D011
:1027F000FEF720FC06B010BD00080040400100209C
:102800000C4810B50A4901604FF4E14141600021D4
:1028100081600C22C160C0E904128161C161FFF7CF
:1028200073FD002803D0BDE81040FEF703BC10BDC7
:1028300000380140880100200C4810B50A490160A9
:102840004FF416414160002181600C22C160C0E953
:1028500004128161C161FFF757FD002803D0BDE874
:102860001040FEF7E7BB10BD00440040CC01002043
:102870000C4810B50A4901604FF4E1314160002174
:1028800081600C22C160C0E904128161C161FFF75F
:102890003BFD002803D0BDE81040FEF7CBBB10BDC8
:1028A0000048004010020020FEE7FEE77047704736
:1028B000FEF736BF30B58FB028216846FDF77DFCA6
:1028C00014210AA8FDF779FC01210804CDE90010C4
:1028D0000024029402250491CDE907504FF4E01042
:1028E00009906846FFF7A0F808B172B6FEE70F201E
:1028F000CDE90A054FF48060CDE90C4002210AA819
:102900000E94FEF7A5FF002801D072B6FEE70FB0C7
:1029100030BD70470148FFF737BB0000F8000020CA
:102920000148FFF731BB000040010020F0B502680C
:102930001C4B1D4D1D4E1E4F1E4C4FF0804C98429F
:1029400009D0A04207D0604505D0A84203D0B042CC
:1029500001D0B84204D122F0700E4A6842EA0E0259
:10296000984209D0A04207D0604505D0A84203D0C4
:10297000B04201D0B84203D122F44075CA682A435C
:102980004D6922F080022A4302608A68C2620A68A6
:102990008262984201D0A04201D1096901630121FC
:1029A0004161F0BD002C01400004004000080040DF
:1029B000000C00400034014010B5846842EA032254
:1029C00024F47F440A432243826010BD826822F0CF
:1029D00070020A4342F007018160704710B5036A34
:1029E000046A24F001040462846924F0F00444EAD7
:1029F000021423F00A020A438461026210BD10B57A
:102A0000036A23F0100303628369046A23F47043AA
:102A100043EA023224F0A00343EA01118261016219
:102A200010BD10B5406A0021C185C184FFF764FB69
:102A300010BD70B5446A2068406994F83D10C0F339
:102A4000C0100025212904D118B1E584204600F0EA
:102A500083F82068406994F83E10C0F38010222962
:102A600004D118B1E585204600F05EF8206C40F0F6
:102A7000100020642046FFF73FFB70BD10B50146F3
:102A8000406A0968096889061BD40021C18501686C
:102A9000CA6822F48072CA6001684A6922F00102A1
:102AA0004A6101684A6922F040024A61202180F8A7
:102AB0003E10016B012904D10168CA6822F010029E
:102AC000CA60016B012902D0FFF730FD10BD818D76
:102AD000FFF711FB10BD10B5406A016B012902D050
:102AE000FFF74CFD10BD818D4908FFF704FB10BDB9
:102AF00010B50146406A0968096889060CD40021AE
:102B0000C18401684A6922F080024A610068C16894
:102B100041F04001C16010BDFFF772FD10BD10B55E
:102B2000406AFFF76EFD10BD0168CA6822F490721A
:102B3000CA6001684A6922F001024A61016B0129F9
:102B400004D10168CA6822F01002CA60202180F80E
:102B50003E100021016370470168CA6822F0C0027C
:102B6000CA60202180F83D10704708B590F83E10EB
:102B7000222901D0022008BD82684FF480539A4276
:102B800001D1016921B1816A9A421BD04AB10AE0A0
:102B90000268816A5268C2F308020A80816A891C4D
:102BA00008E0026972B10268526802F07F020A709E
:102BB000816A491C8162C18D491E0904090CC185C5
:102BC00003D019E002685268F1E70168CA6822F090
:102BD0002002CA600168CA6822F48072CA60016873
:102BE0004A6922F001024A61202180F83E10016BFF
:102BF000012903D0FFF79AFC002008BD00210163E2
:102C00000168CA6822F01002CA6001680A68D20628
:102C100002D50A6849680091818DFFF76CFAEBE7ED
:102C200070B5044600680169E26821F4405111431F
:102C300001612169A0680843616908432168CA6885
:102C400041F20C639A430243CA6020684169A26959
:102C500021F44071114341611E492068884202D12C
:102C6000FEF79CFE01E0FEF789FE00EBC00101EBE0
:102C70000012606864218000B2FBF0F3B3FBF1F353
:102C80006FF018067343B2FBF0F5B2FBF0F605EBFC
:102C90008305322303EB0515B5FBF1F5B6FBF1F621
:102CA00005F0F00505EB0615B2FBF0F6B2FBF0F00F
:102CB000B0FBF1F06FF01802504306EB800003EB1D
:102CC0000010B0FBF1F0216800F00F00284488608C
:102CD00070BD00000038014038B581628285002552
:102CE000134604460564222084F83E00A26B134874
:102CF0009062A26B1248D062A26B12481063A06B64
:102D00000A4645632168A06B091DFEF7B7FB2068E2
:102D100001684168009184F83C50C16841F48071B9
:102D2000C1602068416941F0010141612068416949
:102D300041F040014161002038BD00007D2A0008BB
:102D4000D72A0008332A000881628285C2850021C3
:102D50000164222280F83E2080F83C100168CA6895
:102D600042F48072CA6001684A6942F001024A6115
:102D70000068C16841F02001C16000207047000078
:102D80000148FFF7BBB9000088010020FEE7000002
:102D90000FB4084B10B504A902AA039800F04CF92F
:102DA000044602A9002000F0DEFC204610BC5DF8BD
:102DB00014FB0000673700080907090E002804DB30
:102DC00000F1E02080F80014704700F00F0000F1DF
:102DD000E02080F8141D704730B528B1144C031F53
:102DE000002021680A4605E0084630BD9A4203D813
:102DF00010465268002AF9D1002800D041680BD053
:102E00000468A3EB0005A54204D11B681C440346DB
:102E1000046002E0436000E023603AB11C68D51A08
:102E2000A54203D115682C441C6052685A6030BD1D
:102E3000280000202DE9F04782460F4C10480D4E27
:102E40000E4F001B4FF0000820F007054FF001095E
:102E500000221146504600F019FE002802D13068C9
:102E600010B10020BDE8F0873C60C4E90058C6F806
:102E70000090EDE72C000020E40200202800002054
:102E8000E004002002E008C8121F08C1002AFAD19D
:102E900070477047002001E001C1121F002AFBD1DA
:102EA000704700002DE9FF5F82B00021DDE90430AA
:102EB000020DDDF840B0034318D044F61050A2F2E2
:102EC000FF3242431514119801281FD0A5EB0B00C7
:102ED000401C5FEA000A4FF000064E4FDFF83891C1
:102EE000B046504615D5CAF1000413E011980124EC
:102EF0004AA3012801D16FEA0B010298119AC0E997
:102F00000031C0E9024206B0BDE8F09FCBF10000FD
:102F1000DFE704460021404A491842EB0450CDE95E
:102F2000001012E0E00707D032463B4640464946D3
:102F3000FDF7D1FB8046894632463B46104619468E
:102F4000FDF7C9FB06460F466410002CEAD1DDE907
:102F50000401DDE90023BAF1000F06DAFDF7BBFB3F
:102F600042464B46FDF7B7FB05E0FDF7E9FD42465B
:102F70004B46FDF7E5FD04460E460022284BFDF7C3
:102F80007BFC03D84FF0FF30014607E00022254BC1
:102F900020463146FDF7F8FAFDF74DFE102409E012
:102FA000002C0ADB0A220023FDF7B0FC039B303221
:102FB0001A55641E50EA0102F2D1641C039AC4F14E
:102FC00011031444119A012A03D0012208430DD1A0
:102FD0000AE0084304D000204FF0110B119072E773
:102FE000A3EB0B056D1E0DE05B4504DD4FF0000209
:102FF00005F1010504E003DA4FF00002A5F1010537
:10300000002AECD002981199C0E90231C0E90045CC
:1030100079E70000000014400000F03F300000009D
:103020000000F0430000E03F30380A2801D20120C0
:1030300070470020704700002DE9FF4F95B09B4678
:103040008946064600250FE2252877D10024274629
:10305000F84A0121059400E0044316F8013F203BA3
:1030600001FA03F01042F7D130782A2811D06FF01E
:103070002F033078A0F13002092A16D8059A44F0BF
:10308000020402EB820203EB42021044761C05901C
:10309000EFE759F8042B0592002A03DA504244F472
:1030A0000054059044F00204761C30782E2816D186
:1030B00016F8010F44F004042A280DD06FF02F02F7
:1030C0003078A0F13003092B09D807EB870302EB16
:1030D0004303C718761CF3E759F8047B761C307855
:1030E0006C280FD006DC4C2817D068280DD06A2831
:1030F00014D104E0742810D07A280FD10DE044F4E4
:1031000000140AE044F4801401E044F4401472789E
:10311000824202D104F58014761C761C3078662831
:103120000BD013DC582877D009DC002875D045284F
:10313000F6D04628F4D047281AD19DE118E063283C
:1031400035D0642879D0652812D195E1702873D0E4
:1031500008DC6728F1D069286FD06E280DD06F2861
:1031600006D1B5E073282CD0752875D0782874D096
:103170005A46179990476D1C75E1C4F30250022816
:1031800009D003280DD0D9F8001004280DD00D6007
:1031900009F1040967E1D9F80010EA17C1E9005202
:1031A000F6E7D9F800100D80F2E70D70F0E719F896
:1031B000041B8DF8001000208DF80100EA46012064
:1031C00003E059F804AB4FF0FF3061074FF0000106
:1031D00002D40DE008F101018846B9420FDA8045BA
:1031E000F8DB1AF808100029F4D108E008F1010111
:1031F00088468142FADB1AF808100029F6D10598B2
:103200005B46A0EB080721463846179A00F094FA6F
:10321000284400EB080507E04DE029E10DE01AF82D
:10322000010B5A4617999047B8F10108F7D25B464F
:1032300021463846179A13E142E00A220092C4F36D
:1032400002524FF0000A022A08D059F804CB032A90
:103250004FEAEC710AD00DE029E02AE009F10701FC
:1032600021F00702F2E802C1914609E00FFA8CFC56
:103270004FEAEC71042A03D14FFA8CFC4FEAEC714F
:10328000002907DA0A460021DCF1000C61EB02019B
:103290002D2202E0220504D52B228DF804200122E4
:1032A00003E0E20701D02022F7E7904659E00A2127
:1032B00002E010220DE010214FF0000A00910BE017
:1032C00010224FF0000A44F004040827009203E0A3
:1032D00008224FF0000A0092C4F30252022A05D0DD
:1032E00059F804CB0021032A08D009E009F10701AD
:1032F00021F00702F2E802C1914605E01FFA8CFCBA
:10330000042A01D10CF0FF0C4FF00008220728D549
:10331000702806D0009B83F0100353EA0A0305D0FF
:103320000EE040228DF80420012208E05CEA010250
:1033300006D030228DF804208DF805000222904638
:10334000009B83F0080353EA0A030AD15CEA0102F6
:1033500001D1620705D530228DF804204FF0010815
:103360007F1E582804D034A003900EA802900DE0D0
:1033700036A0F9E753466046009AFDF7C7FA84463F
:103380000398825C0298401E029002705CEA010081
:10339000F0D1029806A9081A00F1200A600702D5A8
:1033A00024F4803400E00127574502DDA7EB0A0032
:1033B00000E0002000EB0A01009005984144401A0B
:1033C0000590E00306D45B462146179A059800F065
:1033D000B3F90544002706E001A85A46C05D1799D5
:1033E00090476D1C7F1C4745F6DBE0030CD55B4620
:1033F0002146179A059800F09FF9054404E0302013
:103400005A46179990476D1C0099481E0090002954
:10341000F5DC08E0029802995A460078491C0291AE
:10342000179990476D1CBAF10001AAF1010AF1DC6D
:1034300065E1000009280100303132333435363778
:1034400038396162636465660000000030313233F0
:103450003435363738394142434445460000000090
:1034600000F058F90544761C307800287FF4ECAD64
:1034700019B02846BDE8F08F620700D4062709F18D
:10348000070222F0070CFCE80223E14603F00048A3
:103490005FEA080C02D00FF2702C0DE05FEA045CCA
:1034A00002D50FF2682C07E05FEAC47C02D00FF26D
:1034B000602C01E0AFF2700C4FF0FF3823F00043B6
:1034C000CDF850C065280CD006DC452809D0462828
:1034D0001DD047283DD13DE0662818D067287ED111
:1034E00038E00021112F01DB112000E0781CCDE92C
:1034F000000106A90EA8FFF7D5FCDDE90F010E9A21
:1035000003910021009207F1010A04914DE04FF070
:1035100000400097CDE9011006A90EA8FFF7C2FCF4
:10352000DDE90F0203920E9B11990022DDF80CA039
:103530000093049211B9791C00EB010AB7EB0A0061
:1035400004D4C0F1FF3007F1010A0490AAEB070090
:10355000019044E0012F00DA01270021112F01DD45
:10356000112000E03846CDE9000106A90EA8FFF7BA
:1035700099FCDDE90F010E9A03910021049100925C
:10358000BA4621070CD40399514500DA8A46BAF1AC
:10359000010F05DD009AAAF10101515C302908D024
:1035A000B84202DA10F1040F06DA0121CDE9011068
:1035B00015E0AAF10101E9E7002805DC04990144BE
:1035C0000491AAEB000102E0411C514500DD8A464E
:1035D0000499401A401C01904FF0004002902007CF
:1035E00004D40198504501DBCDF8048000208DF80B
:1035F0004F0002980DF14F07B0F1004F25D02B205E
:103600000E9002984FF0020800280CDA4042029017
:103610002D200E9007E00A210298FDF761F9303164
:10362000029007F8011DB8F10001A8F10108F2DCD1
:1036300002980028EFD1791E0E980870307800F0BB
:10364000200040F0450007F8020D12A8C01B00F151
:1036500007081498007800B1012000EB0A010198D6
:1036600001EBE07105984144401A401E0590E003CB
:1036700006D45B462146179A059800F05DF805448C
:103680001498007818B15A46179990476D1CE003BA
:1036900024D55B462146179A059800F04DF805445D
:1036A0001CE00498002807DBDDE90301884203DD04
:1036B0000098405C179901E0179930205A469047CE
:1036C000049805F10105401C04900198401E0190EA
:1036D00004D12E205A46179990476D1CBAF100016B
:1036E000AAF1010ADDDC05E017F8010B5A4617992B
:1036F00090476D1CB8F10001A8F10108F4DC5B46AD
:103700002146179A0598ABE62D0000002B0000001B
:10371000200000002DE9F041044600251E46174612
:10372000880404D405E039462020B0476D1C641E8F
:10373000F9D52846BDE8F0812DE9F0410446002581
:103740001E469046C80301D5302700E02027880494
:1037500004D505E041463846B0476D1C641EF9D5D6
:103760002846BDE8F0810A68531C0B601070704752
:1037700011B108B1884201D10020704782683AB186
:1037800052681AB111604A60806841600120704738
:1037900081600020C1E90001F8E72DE9F041060051
:1037A0000698984614460D4621D005B3FCB1A642B2
:1037B0001DD018B1E06840F4007708E019462846AB
:1037C00000F0DEF8050012D0E06820F40077A08950
:1037D000800504D4206A10B1D8F804108847E76047
:1037E000214630462562BDE8F041FFF7C1BF002009
:1037F000BDE8F08108B500230093024BFFF7CDFF31
:1038000008BD00000C000020F8B50C460546104627
:10381000194600F02BF8064600200090064B324671
:1038200021462846FFF7B9FF0028304602D100F0B4
:1038300071F80020F8BD00000C000020F8B5054626
:103840000C46104600F04EF8064600200090064B4D
:10385000324621462846FFF7A0FF0028304602D115
:1038600000F058F80020F8BD0C00002070B50546A7
:103870000E46124800F072F804001CD00820E060E8
:10388000C4E906560E4A0F4B28463146FCF7F4FFB2
:1038900002D86FF000400DE000220B4B2846314665
:1038A000FCF7D2FF02D84FF0004003E02846314633
:1038B000FCF7ABFF6061204670BD00000C000020EB
:1038C0000000C0FFFFFFDF410000E0C110B5044869
:1038D00000F044F8002801D04021C16010BD000074
:1038E0000C00002070B50546094800F037F80400C8
:1038F00007D01020E0600649284600F041F820611A
:1039000008B1204670BD204600F004F8002070BDCC
:103910000C00002070B504460F4E19E0A089256800
:10392000C0050AD4A06820B1FFF7F4FFA089C00544
:1039300003D4206908B171688847A089800503D441
:10394000206A08B1716888477168204688472C460C
:10395000002CE3D170BD00000C00002010B5016800
:1039600028208847040002D02821FCF726FC2046A6
:1039700010BD0000014A012100F036B90C00002002
:1039800070B50E4605000DD0FCF722FC401C3168D6
:1039900004468847060005D022462946FCF7F4FB7A
:1039A000304670BD002070BD2DE9F047984689462D
:1039B00023F0004621F000470546144633463946B9
:1039C000FCF75AFF02D22846394601E0204631462C
:1039D0006FF03302FCF7F1FE06460F4622464346DF
:1039E00028464946FCF771FE21F0004132463B462D
:1039F000FCF72AFF02D80120BDE8F0870020FBE792
:103A00002DE9F04104001CD02268D2B1636813B1E3
:103A1000A068984215D24FF00046B14211D2A56875
:103A2000491C6818834202D35019BDE8F08121690E
:103A300039B9B0F1804F06D3B04202D26FF00047DF
:103A400002E00020F1E74700236A00262BB1394647
:103A500010469847050012D00CE0A1693846884707
:103A600005000CD0A2682168521CFCF78DFBE169AF
:103A700020688847C4E90057A0682844D5E7E16971
:103A80002068884766602660DBE700002DE9F0418A
:103A90000B3020F00706104D19E02068B04215D316
:103AA000B0420AD9871B201DD4F80480FCF76CFBB8
:103AB000A019C0E90078286004E060682860201D33
:103AC000FCF762FB201D2660BDE8F081251D2C68F7
:103AD000002CE2D10020F7E728000020FDF728FEA7
:103AE000FEF7E8FEFEF7AEFDFEF78EFDFEF720FEC8
:103AF000FEF752FEFEF7BCFEFEF79EFEFEF780FECE
:103B000000F050F8FFF7E2FE054615A216A1FFF7F8
:103B100095FE0022164B17A12846FFF775FEFFF70A
:103B2000D5FE04460022154B15A1FFF76DFE17A226
:103B300017A12046FFF782FE224618A12846FFF76C
:103B400059FE2846FFF716FF04462046FCF740FBC7
:103B500081B2204600F030F86420FDF7C7FCF4E79E
:103B60006A736F6E000000007479706500000000D9
:103B7000000059406C656E67746800000000F03FFB
:103B8000636F6E74656E74410000000073747200A0
:103B9000636F6E74656E744200000000636F6E7434
:103BA000656E7400012202490248FEF795BC0000D0
:103BB000010000208801002070B50C46054602E097
:103BC0000120FDF793FC0648FDF7F2FA0228F7D032
:103BD00022462946BDE870400248FEF7D1BC0000ED
:103BE0005402002088010020F0B589B00E46074637
:103BF000144624216846FCF7E0FA4FF480752168EA
:103C0000284688470596CDE9000594E8070006ABED
:103C100083E80700009888B36946384600F02CFA1C
:103C200040B3684600F0C6FAA26800263AB102998D
:103C30000098491C904705001CD0009617E0029898
:103C40002168401C8847050014D0DDE90110401CA4
:103C5000814201D20A4601E0029A521C284600998C
:103C6000FCF792FA02982E5461680098884728461B
:103C700009B0F0BD009808B1616888470020F7E7F7
:103C80002DE9F04185680C000FD001212046FFF797
:103C9000B7FE00280AD05B210170A068401CA0601C
:103CA000E068401C0026E06025E00020BDE8F081CF
:103CB0002146284600F0E0F90028F7D0204600F021
:103CC00079FA2868B0B1606908B1022700E00127DD
:103CD000791C2046FFF794FE0028E7D02C2100F83D
:103CE000011B616911B1202100F8011B0670A06859
:103CF0003844A0602D68002DDAD102212046FFF75C
:103D00007FFE0028D2D05D2101704670E068401E21
:103D1000E0600120CAE700002DE9F04706468AB0BE
:103D2000D6E90654884600271C216846FCF745FA68
:103D30000020CDE908004FF02E09B8F1000F42D065
:103D40000DB1012000E0002020432E4920F000406A
:103D5000081AC00F4FF0000A12D14800B0EB440F10
:103D600000D16DB17069FCF73FFD2A462346FCF790
:103D70006BFD0AD124A168467269FFF709F81FE0BC
:103D800022A16846FFF704F81AE02A46234621A13B
:103D90006846FEF7FDFF064608AA20A16846FCF724
:103DA00027FA012806D1DDE908012A462346FFF754
:103DB000FBFD30B92A46234619A16846FEF7E8FF05
:103DC00006461A2E03D300200AB0BDE8F087711C06
:103DD0004046FFF715FE0028F6D069462E2306E080
:103DE000CA5D4A4501D1C35500E0C2557F1CB742A8
:103DF000F6D300F807A0D8F8080081190120C8F808
:103E00000810E1E70000F07F256400006E756C6C1F
:103E10000000000025312E3135670000256C670059
:103E200025312E31376700002DE9F04785680C00F9
:103E300003D0606920B1022603E00020BDE8F087CE
:103E40000126711C2046FFF7DBFD0028F6D07B2100
:103E500000F8011BE168491CE16061690A2701B1B2
:103E60000770A0684FF0000830440926A06059E0B0
:103E700088B12046E168FFF7C3FD0028DED00021AD
:103E800003E000BF00F8016B491CE2688A42F9D8E0
:103E9000A0681044A0602146286A00F065F8002858
:103EA000CCD0204600F086F9606908B1022000E01D
:103EB0000120814601462046FFF7A2FD0028BDD023
:103EC0003A2100F8011B616901B10670A16801EB9C
:103ED0000900A0602146284600F0CEF80028ADD0A9
:103EE000204600F067F9606900B10120296801B13E
:103EF000012100EB010909F101012046FFF780FDD6
:103F000000289BD0296811B12C2100F8011B6169A0
:103F100009B100F8017B80F80080A16801EB09007D
:103F2000A0602D686069002DA2D110B1E168491C24
:103F300000E002212046FFF763FD002886D061697A
:103F400049B1002103E000BF00F8016B491CE268A1
:103F5000521E8A42F8D87D21017080F80180E06805
:103F6000401EE060012069E72DE9F0470A000546A0
:103F70004FF0000601D01DB120E00020BDE8F08721
:103F800003211046FFF73CFD0028F7D037A1FCF7CE
:103F900026F95AE00C2927D006DC082924D0092963
:103FA00022D00A2906D11FE00D291DD022291BD0BD
:103FB0005C2919D0202900D2761D401C01780029E7
:103FC000E8D1401B8719F91C1046FFF719FD041EA4
:103FD000D4D04FF022084FF0000984F800802EB1B1
:103FE000661C4FF05C0A28E0761CE6E73A46294654
:103FF000601CFCF7C9F823E01F2803D9222801D050
:104000005C2830D106F801AB2A7850460C2A23D020
:1040100006DC082A1ED0092A24D00A2A06D11DE06F
:104020000D2A1DD0222A12D05C2A1CD010A13046A5
:10403000FEF7AEFE361D6D1C761C28780028DBD1FD
:10404000E01980F8018080F80290012096E786F858
:104050000080F0E7622006E0662004E06E2002E0C7
:10406000722000E074203070E5E70000222200009A
:10407000752530347800000070B504000E4613D06A
:1040800096B1207B102843D008DC012816D00228E6
:104090001ED004280AD0082806D121E020283CD0D0
:1040A00040283FD0802820D0002070BD0521304618
:1040B000FFF7A6FC0028F8D01DA106E00621304637
:1040C000FFF79EFC0028F0D01BA1FCF788F81DE04C
:1040D00005213046FFF794FC0028E6D018A1F4E74C
:1040E0002046BDE87040FFF717BE20690028DCD0ED
:1040F000FCF76EF8401C054601463046FFF780FC91
:104100000028D2D02A462169FCF73EF8012070BD74
:104110002069BDE87040FFF727BF2046BDE870402A
:10412000FFF7AEBD2046BDE87040FFF77DBE000042
:104130006E756C6C0000000066616C7365000000B9
:1041400074727565000000002DE9F04704008A468E
:1041500016D054F8047CD4F800903E1F564500D980
:1041600056462046FEF738FE05468846324621462A
:104170005046FFF78BFC40B1C0F80090BDE8F087D7
:10418000BDE8F0470846FEF755BE44E9017955B150
:1041900029686A18211F8A4202D9611B091F2960F8
:1041A000C5F80480EAE7024AC2F80080E6E70000AA
:1041B0002800002010B5040009D02068002806D08F
:1041C000A1680844FCF704F8A1680844A06010BD89
:1041D00000000000000000000102030406070809B7
:1041E0000000000001020304DDDDDDDDDCBBBBDD22
:1041F000DDDDDDDDDDDDDDDD988888888888888887
:1042000077777777778888888555555666666666A6
:104210006666666666688888833333322222222285
:10422000222222222228888D4842000800000020F5
:1042300030000000842E0008784200083000002082
:10424000B0080000942E00080000000000000000EC
:1042500000000000352E0008D92D00084941000853
:104260000100000010000000000000000024F40025
:08427000000000000000000046
:0400000508000131BD
:00000001FF
