:020000040800F2
:10000000C0060020450100086F1A0008C917000843
:100010006D1A0008B1010008511F0008000000001F
:10002000000000000000000000000000731A00083B
:10003000F701000800000000711A0008751A000896
:100040005F0100085F0100085F0100085F01000810
:100050005F0100085F0100085F0100085F01000800
:100060005F0100085F0100085F0100085F010008F0
:100070005F0100085F010008B5010008C101000828
:100080005F0100085F0100085F0100085F010008D0
:100090005F0100085F0100085F0100085F010008C0
:1000A0005F0100085F0100085F0100085F010008B0
:1000B0005F010008D91A0008E51A00085F0100086E
:1000C0005F0100085F0100085F0100085F01000890
:1000D0005F010008451F00085F0100085F0100087C
:1000E0005F0100085F0100085F0100085F01000870
:1000F0005F0100085F0100085F0100085F01000860
:100100005F0100085F0100085F0100085F0100084F
:100110005F0100085F0100085F0100085F0100083F
:100120005F0100085F0100085F0100085F0100082F
:10013000DFF80CD000F02AF800480047911F0008B3
:10014000C00600200648804706480047FEE7FEE755
:10015000FEE7FEE7FEE7FEE7FEE7FEE7FEE7FEE777
:10016000D71A000831010008D2B201E000F8012BD3
:10017000491EFBD270470022F6E710B513460A4627
:1001800004461946FFF7F0FF204610BD064C074D08
:1001900006E0E06840F0010394E807009847103457
:1001A000AC42F6D3FFF7C8FF18200008382000083B
:1001B000FEE70000014800F0E1B80000380200202E
:1001C000014800F0DBB800007C02002030B590F858
:1001D00040500124AC40C56B6C60046863604368A8
:1001E000102B036803D099600068C26030BD9A602C
:1001F0000068C16030BD704772B6FEE710B590F878
:1002000021100022022905D00421816380F82020DA
:10021000012010BD01680B6823F00E030B6001681C
:100220000B6823F001030B6090F84030C46B012190
:1002300001FA03F3636080F8211080F82020104653
:1002400010BD00002DE9F05F90F821100024022974
:1002500003D004218163012485E001680A6822F04B
:100260000E020A6001680A6822F001020A603F4E2D
:100270003E4FB215DFF8F4C0DFF8F090DFF8ECA0E5
:10028000DFF8E8B0DFF8E4E00168783F1301150219
:10029000ACF1640CA9F15009AAF13C0AABF1280BAE
:1002A000AEF1140E4FF48018B14227D9B9420ED0E6
:1002B000614512D049451DD0514518D0594518D037
:1002C000714501D1424615E0294EB14201D10122CA
:1002D00010E0274E1436B14201D110220AE0244E1C
:1002E0002836B14206D0224A3C32914201D11A4608
:1002F00000E02A461E49091F0A602BE0B94213D0CC
:10030000614517D0494522D051451DD059451DD0D2
:10031000714501D142461AE0B14202D14FF08072DC
:1003200015E0134EB14201D1012210E0104E1436F7
:10033000B14201D110220AE00D4E2836B14206D05A
:100340000B4A3C32914201D11A4600E02A46074945
:1003500080394A60012180F82110002180F82010A6
:10036000416B01B188472046BDE8F09F8000024004
:100370000804024090F82100704700002DE9F05F6A
:10038000C16B0A6801680B68046C4FF0040808FA36
:1003900004F8844D844E854FDFF814C2DFF81492C0
:1003A000DFF814A2DFF814B2DFF814E218EA020F43
:1003B00065D05FEA437862D50A68920603D40A687A
:1003C00022F004020A60DFF8F0814FF480620168D5
:1003D00008F1140813011402414524D9A9420DD093
:1003E000B1420FD0B9421AD0614515D0494515D058
:1003F000514501D1120312E0594501D104220EE00A
:10040000714501D140220AE06D4D1435A94206D054
:100410006B4A2832914201D11A4600E022466749D0
:10042000091F0A6029E0A94213D0B14215D0B94290
:1004300020D061451BD049451BD0514502D14FF416
:10044000800217E0414502D14FF0806212E0594529
:1004500001D104220EE0714501D140220AE0584D3D
:100460001435A94206D0564A2832914201D11A4683
:1004700000E022464B4908394A60C16A71E04FF0FA
:10048000020808FA04F818EA020F70D05FEA8378CD
:100490006DD50A68920606D40A6822F00A020A603C
:1004A000012180F82110DFF810814FF400720168FB
:1004B00008F1140813011402414524D9A9420DD0B2
:1004C000B1420FD0B9421AD0614515D0494515D077
:1004D000514501D1120312E0594501D102220EE02B
:1004E000714501D120220AE0354D1435A94206D0CC
:1004F000334A2832914201D11A4600E022462F4960
:10050000091F0A6029E0A94213D0B14215D0B942AF
:1005100020D061451BD049451BD0514502D14FF435
:10052000001217E0414502D14FF0007212E0594528
:1005300001D102220EE0714501D120220AE0204DB6
:100540001435A94206D01E4A2832914201D11A46DA
:1005500000E02246134908394A60002180F8201043
:10056000816A00291CD0BDE8F05F0847FFE7082535
:10057000A540154214D01A0712D50A6822F00E02BF
:100580000A6090F84020C36B012101FA02F25A6020
:10059000816380F82110002180F82010016BE0E7D2
:1005A000BDE8F09F080002401C00024030000240FD
:1005B00044000240580002406C000240080402401F
:1005C0001C04024030B560B11A4B026814219A42F3
:1005D00009D2194B1344B3FBF1F1890001641749A7
:1005E0000AE0012030BD134B5B421344B3FBF1F131
:1005F000890001640F490839C163022180F8211084
:10060000136843F6F0718B43F0E901142143D0E9FC
:1006100002452C43214304692143446921438469F1
:100620002143194311600021416301224277017780
:10063000084630BD08040240F8FFFDBF000002403C
:1006400070B5044690F82000002501280CD0012048
:1006500084F8200094F821600020012E06D084F850
:1006600020000225284670BD022070BD022684F8B5
:100670002160A0632068066826F001060660204617
:10068000FFF7A4FDE06A00282068016802D041F06D
:100690000E0106E021F0040101602068016841F0CC
:1006A0000A0101602068016841F001010160D9E799
:1006B00070B5044600F010F90546601C02D00448ED
:1006C0000078044400F008F9401BA042FAD370BD42
:1006D000040000202DE9F84FDFF8C891002409F14B
:1006E000040A0AF1040B23460F270BF1040ED1E094
:1006F0000125A54006EA0502AA4276D1DFF8A8C185
:100700004E68A6EB0C0866452BD00DDC032E34D0CA
:1007100005DC36B3012E19D0022E2FD11BE0112E8D
:1007200016D0122E2AD119E0B8F5881F19D006DC90
:10073000B8F5803F15D0B8F5801F1FD111E0B8F58E
:10074000001F0ED0B8F5041F18D10AE0CB6815E0E1
:10075000CB681B1D12E0CB6808330FE0CB680C336D
:100760000CE08B682BB1012B4FF0080303D04561DF
:1007700004E0042302E0056100E00023FF2A01D821
:10078000064601E000F104064FEA840501D9A5F10F
:100790002005D6F8008007FA05FC28EA0C0803FAC1
:1007A00005F548EA0508C6F800804D68ED0070D5EB
:1007B0003E4DAE6946F00106AE61AD6924F0030618
:1007C00005F0010500953A4D06EB050CDCF80850E4
:1007D000A607360F07FA06F825EA0805DFF8D480E1
:1007E000404503D14FF0000825E052E0DFF8C88013
:1007F000404502D14FF001081DE0DFF8C0804045C0
:1008000002D14FF0020816E0DFF8B480404502D173
:100810004FF003080FE0DFF8AC80404502D14FF005
:10082000040808E0DFF8A080404502D14FF0050839
:1008300001E04FF0060808FA06F848EA0508CCF887
:1008400008804D68D9F80060ED034D4601D5164388
:1008500000E096432E604D68DAF80060AD0355461F
:1008600001D5164300E096432E604D68DBF800602A
:10087000ED025D4601D5164300E096432E604D68BB
:10088000DEF80060AD02754601D5164300E09643E0
:100890002E60641C0A681646E2407FF429AFBDE86A
:1008A000F88F000000040140000011100010024009
:1008B0000000014000080140000C01400010014010
:1008C0000014014000180140001C01400AB1016100
:1008D00070470904FBE7000001488068704700008A
:1008E000040000200248816802781144816070474A
:1008F00004000020074810B5016841F010010160B4
:10090000032000F075F80F2000F006F800F024F83E
:10091000002010BD0020024070B50D4D04464FF47C
:100920007A712878B1FBF0F00A490968B1FBF0F060
:1009300000F0ECFA48B9102C07D200222146501ED4
:1009400000F036F800206C6070BD012070BD000022
:1009500004000020100000200C4808B5816941F017
:1009600001018161816901F001010091C16941F0DA
:100970008051C161C06900F0805000900448416816
:1009800021F0E06141F00071416008BD00100240BB
:1009900000000140002809DB00F01F020121914006
:1009A0004009800000F1E020C0F80011704700000D
:1009B000F0B40E4B1B680C46C3F30223C3F10705CA
:1009C000042D00D90425191D072901D2002300E0B8
:1009D000DB1E012606FA05F1491E214099409E4082
:1009E000761E16403143F0BC01F0B3BA0CED00E0C6
:1009F000064900F0070208684FF6FF03184040EA76
:100A00000220034A10430860704700000CED00E02C
:100A10000000FA052DE9F0470F46050061D0434E6E
:100A2000306800F00700B84209D2306820F00700B3
:100A300038433060306800F00700B84251D1286870
:100A40003B4C810712D5400703D5606840F4E06055
:100A500060602878000703D5606840F460506060EB
:100A60006068A96820F0F000084360602878C0073B
:100A700028D06868012810D02168022810D0890782
:100A800000292EDA616821F0030101436160FFF75C
:100A900023FF804641F288390DE021688903EFE7A2
:100AA0008901EDE7FFF718FFA0EB0801494502D9DE
:100AB0000320BDE8F0876068696800F00C00B0EBC7
:100AC000810FEFD1306800F00700B8420BD93068D1
:100AD00020F0070038433060306800F00700B8426B
:100AE00001D00120E5E72878400705D56068E9686E
:100AF00020F4E060084360602878000706D560684D
:100B0000296920F4605040EAC100606000F038F8C4
:100B10006168084AC1F30311515CC8400649086086
:100B200006480068FFF7F8FE0020C2E700200240F8
:100B300000100240002000081000002008000020E3
:100B40000448054900684968044AC1F30221515C20
:100B5000C84070471000002000100240102000081C
:100B60000448054900684968044AC1F3C221515C40
:100B7000C8407047100000200010024010200008FC
:100B800012A185B00FC98DE80F0014A0144A0068A7
:100B900004905168134801F00C03042B10D0082B6B
:100BA0000ED1C1F38343C9031DF803000AD5516870
:100BB00004AAC1F34041515C0A4A5043B0FBF1F032
:100BC00005B0704708494843FAE7000002030405EE
:100BD000060708090A0B0C0D0E0F10100102000089
:100BE0000010024000127A0000093D002DE9F84F84
:100BF000040070D02078C04DC00749D06868C0F3A9
:100C00008100012807D06868C0F38100022809D15B
:100C10006868C00306D52868800339D56068002855
:100C2000E7D035E06068B0F5803F0BD010B1B0F58B
:100C3000A02F11D0286820F480302860286820F484
:100C4000802002E0286840F480302860606890B11D
:100C5000FFF742FE06460AE0286840F4802028603C
:100C6000F0E700BFFFF738FE801B642873D82868C0
:100C70008003F7D50CE0FFF72FFE064605E000BF26
:100C8000FFF72AFE801B6428F0D828688003F7D479
:100C900020789A4E80074FF001094FF0000839D5AF
:100CA000686810F00C0F07D06868C0F38100022854
:100CB00009D16868C00306D42868800714D5206964
:100CC000012808D110E02069B0B1C6F80090FFF704
:100CD00003FE074605E00AE1FFF7FEFDC01B022800
:100CE000C4D828688007F7D52868616920F0F80023
:100CF00040EAC10028600DE0C6F80080FFF7ECFD77
:100D0000074604E0FFF7E8FDC01B022823D8286847
:100D10008007F7D4207800072CD57948A169D9B18C
:100D2000C0F80090FFF7D8FD074604E0FFF7D4FDB8
:100D3000C01B02280FD8686A8007F7D571484FF4A6
:100D4000FA510068B0FBF1F0009000BF0098411E1E
:100D50000091FAD20EE080E0C0F80080FFF7BCFD01
:100D6000074604E0FFF7B8FDC01B022875D8686A83
:100D70008007F7D42078400760D5E8690027C000D5
:100D800008D4E86940F08050E861E869012700F084
:100D9000805000905C480168C90513D401688346FF
:100DA00041F480710160FFF797FD824606E000BFC5
:100DB000FFF792FDA0EB0A0064284ED8DBF8000094
:100DC000C005F5D5E06801280AD008B1052813D080
:100DD000286A20F001002862286A20F0040002E05E
:100DE000286A40F001002862E06841F2883B98B12F
:100DF000FFF772FD82460BE0286A40F0040028628B
:100E0000EEE700BFFFF768FDA0EB0A0159455AD88D
:100E1000286A8007F6D50CE0FFF75EFD824605E004
:100E2000FFF75AFDA0EB0A0159454CD8286A800704
:100E3000F6D41FB1E86920F08050E861E06988B31A
:100E40006968C1F38101022944D00228C6F8608094
:100E500004D0FFF741FD044638E034E0FFF73CFDE5
:100E6000074604E0FFF738FDC01B02282BD828688E
:100E70008001F7D4206AB0F5803F05D16868A16889
:100E800020F4003008436860D4E908010843696829
:100E900021F4741108436860C6F86090FFF71CFDE8
:100EA000044606E025E000BFFFF716FD001B022800
:100EB00009D828688001F7D51BE000BFFFF70CFDBB
:100EC000001B022802D90320BDE8F88F28688001A2
:100ED000F4D40EE00128F7D06868226A00F480316B
:100EE000914204D1616A00F47010884201D001205F
:100EF000EAE70020E8E7000000100240000042425C
:100F000080044242100000200070004010B5401ED6
:100F1000B0F1807F01D3012010BD4FF0E02460616B
:100F20000F21601701F015F80020A0610720206153
:100F3000002010BD7047704770B590F83C20012A22
:100F40002CD0012480F83C40022280F83D20036828
:100F50005A689D6822F070060A6832435A60104B46
:100F600002689A420ED00F4B9A420BD0B2F1804FDA
:100F700008D00D4B9A4205D00C4B9A4202D00C4B34
:100F80009A4204D1496825F080031943916080F8A2
:100F90003D40002180F83C10084670BD022070BD25
:100FA000002C0140003401400004004000080040D3
:100FB000000C004010B5040003D094F83D0010B1BF
:100FC00007E0012010BD002084F83C00204600F01E
:100FD0001FF8022084F83D00211D206800F088FDE4
:100FE000012084F8460084F83E0084F83F0084F82D
:100FF000400084F8410084F8420084F8430084F8FB
:10100000440084F8450084F83D00002010BD000035
:1010100008B5154A0168154891420ED1C16941F0E1
:101020000201C161C069002200F002000090114677
:101030001D20FFF7BDFC1D2010E00D4A914211D18B
:10104000C16941F00401C161C069002200F00400DF
:10105000009011461E20FFF7ABFC1E20BDE80840A3
:10106000FFF798BC08BD00000004004000100240DB
:101070000008004070B5044690F83C00012817D0E5
:10108000012584F83C50022084F83D0020688268E5
:1010900022F0770222F47F4282600868502830D024
:1010A0000DDC20284DD005DC98B310283BD148E05A
:1010B000022070BD302844D0402834D139E0602867
:1010C00028D0702806D0B0F5805F2CD0B0F5005F36
:1010D00029D10AE0CB68D1E90121206800F04EFD5A
:1010E0002068816841F0770109E0CB68D1E90121EE
:1010F000206800F043FD2068816841F480418160F0
:1011000011E0CA684968206800F04AFD5021206853
:1011100007E016E0CA684968206800F052FD6021C7
:10112000206800F035FD84F83D50002084F83C0034
:1011300070BDCA684968206800F032FD402120680F
:10114000EFE7226801461046EBE7704770B50446AA
:10115000006801694FF00005C943890715D4C168CB
:10116000C943890711D4E91E016101202077206855
:1011700080698007204602D0FFF7E7FF04E000F017
:1011800098F8204600F096F8257720680169C94351
:10119000490717D4C168C943490713D46FF0040144
:1011A0000161022020772068806910F4407F20468A
:1011B00002D0FFF7CAFF04E000F07BF8204600F001
:1011C00079F8257720680169C943090716D4C168F1
:1011D000C943090712D46FF0080101610420207788
:1011E0002068C0698007204602D0FFF7AEFF04E008
:1011F00000F05FF8204600F05DF82577206801696F
:10120000C943C90617D4C168C943C90613D46FF0CE
:1012100010010161082020772068C06910F4407F28
:10122000204602D0FFF791FF04E000F042F820468C
:1012300000F040F8257720680169C943C90708D143
:10124000C168C943C90704D1891E0161204600F065
:1012500032F820680169C943090609D4C168C94345
:10126000090605D46FF0800101612046FFF762FE98
:1012700020680169C943490609D4C168C9434906C0
:1012800005D46FF040010161204600F015F8206898
:101290000169C94389060BD4C168C943890607D4CB
:1012A0006FF0200101612046BDE87040FFF743BEAA
:1012B00070BD7047704770477047704770470000B7
:1012C000F8B5026804461068D168536910F00F0F32
:1012D0004FF0000553D003F0010601F49077374337
:1012E0005FD0C20705D0CA0503D5226C42F00102C7
:1012F0002264420705D5DA0703D0226C42F00202CD
:101300002264820705D5DA0703D0226C42F004027A
:101310002264020707D501F02002324303D0226C79
:1013200042F008022264226C002A34D0800604D5E0
:10133000880602D5204600F0FAFC20684069216C3E
:10134000C0F38010090700D430B3204600F0CEFC73
:101350002068416949061BD5416921F0400141617E
:10136000A06BA8B158494163A06BFEF76BFF002842
:1013700011D0A06B416B01B0BDE8F0400847830677
:101380000FD58B060DD52046BDE8F84000F0CFBC48
:101390002046FFF793FFF8BD2046FFF78FFF256437
:1013A000F8BD266B2023012E52D1C60650D5CE069D
:1013B0004ED5106850680090506940062AD5A16B40
:1013C000086840680004000CEAD0A68D8642E7D980
:1013D000E0858869202818D0D06820F48070D0601B
:1013E0002068416921F0010141612068416921F0D3
:1013F0004001416184F83E3025632068C16821F0D6
:101400001001C160A06BFEF7F9FEA08DE18D401ABE
:1014100081B219E0A08DE18D401A81B2E08D0028E3
:10142000BED00029BCD0D06820F49070D060206875
:10143000426922F00102426184F83E30256320684F
:10144000C26822F01002C2602046FFF736FFF8BDE6
:1014500005062BD50D0629D594F83D002128F6D197
:10146000A068B0F5805F01D12069B0B1206A411C4D
:101470002162216800784860E08C401E0004000C66
:10148000E084E4D12068C16821F08001C160206857
:10149000C16841F04001C160F8BD206A0088C0F316
:1014A00008005060206A801C2062E5E74006F3D502
:1014B0004806F1D5D168204621F04001D16084F87A
:1014C0003D3000F07FF9F8BDE71B000870B504005F
:1014D00004D094F83D00002510B106E0012070BD55
:1014E00084F83C50204600F023F8242084F83D0086
:1014F0002068C16821F40051C160204600F072FCF0
:101500002068016921F4904101612068416921F05E
:101510002A0141612068C16841F40051C16025641D
:10152000202084F83D0084F83E00002070BD0000BB
:10153000F0B585B00024009401940294039406460B
:1015400003684F48DFF834C1022103224D4D0715CF
:10155000634551D1836943F480438361836903F414
:1015600080430493836943F0040383618069039299
:1015700000F0040004900802CDE900016946284605
:10158000FFF7A8F8CDE90074694628460294FFF7F2
:10159000A1F83E4D3C48802701C5102091C540026E
:1015A00045F810496C61C5E906403848FFF70AF86C
:1015B00008B1FEF721FE75636E62344D3248443542
:1015C0001430C5E90004C5E9024720202C61C5E9B3
:1015D00005402846EC61FEF7F5FF08B1FEF70CFE6A
:1015E000B5630022114625206E62FFF7E1F9252040
:1015F000FFF7D0F905B0F0BD254EB34219D1C3694C
:1016000043F40033C361C36903F400330493836973
:1016100043F0040383618069039200F004000490A6
:101620000420CDE9000169462846FFF753F8082059
:101630001BE0184DAB42DDD1C36943F48023C36185
:10164000C36903F480230493836943F0080383612F
:101650008069CDE9007100F00800CDE903200E4D4E
:1016600069462846FFF736F8E814CDE900046946D4
:1016700028460294FFF72EF8BCE70000003801402E
:1016800000100240000801404400024038020020DF
:101690000044004000480040000C014090F83E30FB
:1016A000202B0ED159B152B190F83C30012B08D00B
:1016B000012380F83C300023036300F0EFBB0120DE
:1016C00070470220704790F83E30202B0ED159B160
:1016D00052B190F83C30012B08D0012380F83C3007
:1016E0000023036300F012BC012070470220704702
:1016F00010B500680E49884219D10E4C2178C729CF
:101700000FD8601C007824280BD00B4A5054491C79
:10171000217008490122BDE81040491C0748FFF725
:10172000D2BF054800F054FC00202070F1E710BD46
:101730000038014000000020140000206C0100204F
:101740007047000070B5044690F83D00202830D165
:1017500069B362B394F83C0001282AD0012084F8D0
:101760003C002162A284E28400252564212084F8C3
:101770003D00636B10489862636B1048D862636BDE
:101780000F481863606B134645632668606B321D13
:10179000FEF756FF21686FF04000086084F83C5067
:1017A0002068416941F080014161002070BD012045
:1017B00070BD022070BD0000B51C0008E31C0008CD
:1017C000F71B000870477047FEE700000D4808B59A
:1017D000416941F0010141614069002200F00100CE
:1017E000009011460E20FFF7E3F80E20FFF7D2F825
:1017F000002211460F20FFF7DBF8BDE808400F205C
:10180000FFF7C8B8001002402DE9F04786B0002469
:1018100034480094019402940394816941F02001BA
:101820008161816901F020010491816941F0100119
:101830008161816901F010010491816941F0040125
:101840008161816901F004010491816941F008011D
:1018500081618069DFF8908000F008000490002228
:1018600001214046FFF732F8DFF880904FF491777E
:10187000002239464846FFF729F8DFF874A0002215
:101880001F215046FFF722F80125022603960095F6
:10189000CDE9015469464046FEF71CFFCDE90064DE
:1018A000694640460294FEF715FF00970396CDE97E
:1018B000015469464846FEF70DFF5020CDE900046B
:1018C000694648460294FEF705FF1F20CDE9000552
:1018D000CDE9024669465046FEF7FCFE06B0BDE87B
:1018E000F087000000100240001001400008014095
:1018F000000C014010B586B00024174800940194F4
:101900000294039404941349059401604721C0E9AB
:1019100001144FF6FF71C0E9031480218161FFF7C4
:1019200049FB08B1FEF768FC4FF48050009069460F
:101930000948FFF79FFB08B1FEF75EFC049404A979
:1019400005480594FFF7F8FA002801D0FEF754FC8B
:1019500006B010BD00040040DC00002010B586B0C9
:1019600000241748009401940294039404941349AA
:10197000059401604721C0E9011440F2E731C0E954
:10198000031480218161FFF715FB08B1FEF734FCD9
:101990004FF48050009069460948FFF76BFB08B18F
:1019A000FEF72AFC049404A905480594FFF7C4FA3D
:1019B000002801D0FEF720FC06B010BD0008004052
:1019C000240100200C4810B50A4901604FF4E141A0
:1019D0004160002181600C22C160C0E90412816174
:1019E000C161FFF773FD002803D0BDE81040FEF78A
:1019F00003BC10BD003801406C0100200C4810B53C
:101A00000A4901604FF416414160002181600C22B7
:101A1000C160C0E904128161C161FFF757FD002870
:101A200003D0BDE81040FEF7E7BB10BD0044004006
:101A3000B00100200C4810B50A4901604FF4E131B3
:101A40004160002181600C22C160C0E90412816103
:101A5000C161FFF73BFD002803D0BDE81040FEF751
:101A6000CBBB10BD00480040F4010020FEE7FEE7BC
:101A700070477047FEF736BF30B58FB028216846F3
:101A8000FEF779FB14210AA8FEF775FB0121080473
:101A9000CDE900100024029402250491CDE90750FD
:101AA0004FF4E01009906846FFF7A0F808B172B64D
:101AB000FEE70F20CDE90A054FF48060CDE90C4028
:101AC00002210AA80E94FEF7A5FF002801D072B6E5
:101AD000FEE70FB030BD70470148FFF737BB00008D
:101AE000DC0000200148FFF731BB0000240100208A
:101AF000F0B502681C4B1D4D1D4E1E4F1E4C4FF085
:101B0000804C984209D0A04207D0604505D0A84239
:101B100003D0B04201D0B84204D122F0700E4A681E
:101B200042EA0E02984209D0A04207D0604505D093
:101B3000A84203D0B04201D0B84203D122F440758C
:101B4000CA682A434D6922F080022A4302608A68EB
:101B5000C2620A688262984201D0A04201D109693A
:101B6000016301214161F0BD002C014000040040EF
:101B700000080040000C00400034014010B58468AB
:101B800042EA032224F47F440A432243826010BDC8
:101B9000826822F070020A4342F0070181607047B8
:101BA00010B5036A046A24F001040462846924F015
:101BB000F00444EA021423F00A020A438461026238
:101BC00010BD10B5036A23F0100303628369046A31
:101BD00023F4704343EA023224F0A00343EA0111E4
:101BE0008261016210BD10B5406A0021C185C184C7
:101BF000FFF764FB10BD70B5446A2068406994F833
:101C00003D10C0F3C0100025212904D118B1E5848E
:101C1000204600F083F82068406994F83E10C0F335
:101C20008010222904D118B1E585204600F05EF825
:101C3000206C40F0100020642046FFF73FFB70BD91
:101C400010B50146406A0968096889061BD400215D
:101C5000C1850168CA6822F48072CA6001684A6955
:101C600022F001024A6101684A6922F040024A6199
:101C7000202180F83E10016B012904D10168CA6857
:101C800022F01002CA60016B012902D0FFF730FD7B
:101C900010BD818DFFF711FB10BD10B5406A016BBF
:101CA000012902D0FFF74CFD10BD818D4908FFF7D7
:101CB00004FB10BD10B50146406A09680968890631
:101CC0000CD40021C18401684A6922F080024A6173
:101CD0000068C16841F04001C16010BDFFF772FDAE
:101CE00010BD10B5406AFFF76EFD10BD0168CA68EF
:101CF00022F49072CA6001684A6922F001024A61C6
:101D0000016B012904D10168CA6822F01002CA607F
:101D1000202180F83E100021016370470168CA68E5
:101D200022F0C002CA60202180F83D10704708B53B
:101D300090F83E10222901D0022008BD82684FF49D
:101D400080539A4201D1016921B1816A9A421BD024
:101D50004AB10AE00268816A5268C2F308020A8046
:101D6000816A891C08E0026972B10268526802F057
:101D70007F020A70816A491C8162C18D491E090473
:101D8000090CC18503D019E002685268F1E70168C7
:101D9000CA6822F02002CA600168CA6822F4807210
:101DA000CA6001684A6922F001024A61202180F874
:101DB0003E10016B012903D0FFF79AFC002008BDFB
:101DC000002101630168CA6822F01002CA6001683C
:101DD0000A68D20602D50A6849680091818DFFF72A
:101DE0006CFAEBE770B5044600680169E26821F41B
:101DF0004051114301612169A068084361690843AA
:101E00002168CA6841F20C639A430243CA602068A1
:101E10004169A26921F44071114341611E49206862
:101E2000884202D1FEF79CFE01E0FEF789FE00EB3E
:101E3000C00101EB0012606864218000B2FBF0F386
:101E4000B3FBF1F36FF018067343B2FBF0F5B2FB8E
:101E5000F0F605EB8305322303EB0515B5FBF1F531
:101E6000B6FBF1F605F0F00505EB0615B2FBF0F652
:101E7000B2FBF0F0B0FBF1F06FF01802504306EB4C
:101E8000800003EB0010B0FBF1F0216800F00F00C0
:101E90002844886070BD00000038014038B5816278
:101EA00082850025134604460564222084F83E00FE
:101EB000A26B13489062A26B1248D062A26B1248C8
:101EC0001063A06B0A4645632168A06B091DFEF7ED
:101ED000B7FB206801684168009184F83C50C168F4
:101EE00041F48071C1602068416941F001014161A4
:101EF0002068416941F040014161002038BD000087
:101F0000411C00089B1C0008F71B000881628285A9
:101F1000C28500210164222280F83E2080F83C1016
:101F20000168CA6842F48072CA6001684A6942F076
:101F300001024A610068C16841F02001C1600020CF
:101F4000704700000148FFF7BBB900006C0100209A
:101F5000FEE70907090E002804DB00F1E02080F805
:101F60000014704700F00F0000F1E02080F8141D0D
:101F7000704702E008C8121F08C1002AFAD1704752
:101F80007047002001E001C1121F002AFBD17047F9
:101F9000FEF7B0FCFFF770FDFFF736FCFFF716FC0D
:101FA000FFF7A8FCFFF7DAFCFFF744FDFFF726FD7B
:101FB000FFF708FD00F002F8FEE7000001220249E9
:101FC0000248FFF76BBB0000010000206C010020FD
:101FD00070B50C46054602E00120FEF769FB064895
:101FE000FEF7C8F90228F7D022462946BDE870401E
:101FF0000248FFF7A7BB0000380200206C01002058
:1020000000000000000000000102030406070809A8
:102010000000000001020304382000080000002036
:1020200014000000721F00084C200008140000205B
:10203000AC060000821F0008000000000100000044
:0C20400010000000000000000024F4006C
:0400000508000131BD
:00000001FF
